{
  "address": "0x5FbDB2315678afecb367f032d93F642f64180aa3",
  "abi": [
    {
      "anonymous": false,
      "inputs": [
        {
          "indexed": true,
          "internalType": "uint256",
          "name": "id",
          "type": "uint256"
        },
        {
          "indexed": false,
          "internalType": "string",
          "name": "company",
          "type": "string"
        }
      ],
      "name": "MilestoneAdded",
      "type": "event"
    },
    {
      "anonymous": false,
      "inputs": [
        {
          "indexed": true,
          "internalType": "uint256",
          "name": "id",
          "type": "uint256"
        },
        {
          "indexed": false,
          "internalType": "uint256",
          "name": "index",
          "type": "uint256"
        },
        {
          "indexed": false,
          "internalType": "address",
          "name": "verifier",
          "type": "address"
        }
      ],
      "name": "MilestoneVerified",
      "type": "event"
    },
    {
      "anonymous": false,
      "inputs": [
        {
          "indexed": true,
          "internalType": "uint256",
          "name": "id",
          "type": "uint256"
        }
      ],
      "name": "PrivateMemoUpdated",
      "type": "event"
    },
    {
      "anonymous": false,
      "inputs": [
        {
          "indexed": true,
          "internalType": "uint256",
          "name": "id",
          "type": "uint256"
        },
        {
          "indexed": true,
          "internalType": "address",
          "name": "owner",
          "type": "address"
        }
      ],
      "name": "ProfileCreated",
      "type": "event"
    },
    {
      "anonymous": false,
      "inputs": [
        {
          "indexed": true,
          "internalType": "uint256",
          "name": "id",
          "type": "uint256"
        }
      ],
      "name": "ProfileUpdated",
      "type": "event"
    },
    {
      "anonymous": false,
      "inputs": [
        {
          "indexed": true,
          "internalType": "uint256",
          "name": "id",
          "type": "uint256"
        }
      ],
      "name": "ReputationChanged",
      "type": "event"
    },
    {
      "inputs": [
        {
          "internalType": "uint256",
          "name": "resumeId",
          "type": "uint256"
        },
        {
          "internalType": "string",
          "name": "company",
          "type": "string"
        },
        {
          "internalType": "string",
          "name": "position",
          "type": "string"
        },
        {
          "internalType": "string",
          "name": "description",
          "type": "string"
        },
        {
          "internalType": "uint256",
          "name": "startDate",
          "type": "uint256"
        },
        {
          "internalType": "uint256",
          "name": "endDate",
          "type": "uint256"
        },
        {
          "internalType": "string",
          "name": "proofCID",
          "type": "string"
        }
      ],
      "name": "addMilestone",
      "outputs": [],
      "stateMutability": "nonpayable",
      "type": "function"
    },
    {
      "inputs": [
        {
          "internalType": "string",
          "name": "metadataCID",
          "type": "string"
        }
      ],
      "name": "createProfile",
      "outputs": [
        {
          "internalType": "uint256",
          "name": "",
          "type": "uint256"
        }
      ],
      "stateMutability": "nonpayable",
      "type": "function"
    },
    {
      "inputs": [
        {
          "internalType": "uint256",
          "name": "resumeId",
          "type": "uint256"
        },
        {
          "internalType": "externalEuint32",
          "name": "input",
          "type": "bytes32"
        },
        {
          "internalType": "bytes",
          "name": "inputProof",
          "type": "bytes"
        }
      ],
      "name": "decreaseReputation",
      "outputs": [],
      "stateMutability": "nonpayable",
      "type": "function"
    },
    {
      "inputs": [
        {
          "internalType": "uint256",
          "name": "resumeId",
          "type": "uint256"
        }
      ],
      "name": "getPrivateMemo",
      "outputs": [
        {
          "internalType": "euint64",
          "name": "",
          "type": "bytes32"
        }
      ],
      "stateMutability": "view",
      "type": "function"
    },
    {
      "inputs": [
        {
          "internalType": "uint256",
          "name": "resumeId",
          "type": "uint256"
        }
      ],
      "name": "getProfile",
      "outputs": [
        {
          "components": [
            {
              "internalType": "uint256",
              "name": "id",
              "type": "uint256"
            },
            {
              "internalType": "address",
              "name": "owner",
              "type": "address"
            },
            {
              "internalType": "string",
              "name": "metadataCID",
              "type": "string"
            },
            {
              "components": [
                {
                  "internalType": "string",
                  "name": "company",
                  "type": "string"
                },
                {
                  "internalType": "string",
                  "name": "position",
                  "type": "string"
                },
                {
                  "internalType": "string",
                  "name": "description",
                  "type": "string"
                },
                {
                  "internalType": "uint256",
                  "name": "startDate",
                  "type": "uint256"
                },
                {
                  "internalType": "uint256",
                  "name": "endDate",
                  "type": "uint256"
                },
                {
                  "internalType": "string",
                  "name": "proofCID",
                  "type": "string"
                },
                {
                  "internalType": "bool",
                  "name": "verified",
                  "type": "bool"
                },
                {
                  "internalType": "address",
                  "name": "verifier",
                  "type": "address"
                }
              ],
              "internalType": "struct NebulaResumeFHE.Experience[]",
              "name": "experiences",
              "type": "tuple[]"
            }
          ],
          "internalType": "struct NebulaResumeFHE.Resume",
          "name": "",
          "type": "tuple"
        }
      ],
      "stateMutability": "view",
      "type": "function"
    },
    {
      "inputs": [
        {
          "internalType": "address",
          "name": "user",
          "type": "address"
        }
      ],
      "name": "getProfilesByUser",
      "outputs": [
        {
          "internalType": "uint256[]",
          "name": "",
          "type": "uint256[]"
        }
      ],
      "stateMutability": "view",
      "type": "function"
    },
    {
      "inputs": [
        {
          "internalType": "uint256",
          "name": "resumeId",
          "type": "uint256"
        }
      ],
      "name": "getReputation",
      "outputs": [
        {
          "internalType": "euint32",
          "name": "",
          "type": "bytes32"
        }
      ],
      "stateMutability": "view",
      "type": "function"
    },
    {
      "inputs": [
        {
          "internalType": "uint256",
          "name": "resumeId",
          "type": "uint256"
        },
        {
          "internalType": "address",
          "name": "to",
          "type": "address"
        }
      ],
      "name": "grantDecryption",
      "outputs": [],
      "stateMutability": "nonpayable",
      "type": "function"
    },
    {
      "inputs": [
        {
          "internalType": "uint256",
          "name": "resumeId",
          "type": "uint256"
        },
        {
          "internalType": "externalEuint32",
          "name": "input",
          "type": "bytes32"
        },
        {
          "internalType": "bytes",
          "name": "inputProof",
          "type": "bytes"
        }
      ],
      "name": "increaseReputation",
      "outputs": [],
      "stateMutability": "nonpayable",
      "type": "function"
    },
    {
      "inputs": [],
      "name": "protocolId",
      "outputs": [
        {
          "internalType": "uint256",
          "name": "",
          "type": "uint256"
        }
      ],
      "stateMutability": "pure",
      "type": "function"
    },
    {
      "inputs": [],
      "name": "resumeCount",
      "outputs": [
        {
          "internalType": "uint256",
          "name": "",
          "type": "uint256"
        }
      ],
      "stateMutability": "view",
      "type": "function"
    },
    {
      "inputs": [
        {
          "internalType": "uint256",
          "name": "resumeId",
          "type": "uint256"
        },
        {
          "internalType": "externalEuint64",
          "name": "note",
          "type": "bytes32"
        },
        {
          "internalType": "bytes",
          "name": "inputProof",
          "type": "bytes"
        }
      ],
      "name": "setPrivateMemo",
      "outputs": [],
      "stateMutability": "nonpayable",
      "type": "function"
    },
    {
      "inputs": [
        {
          "internalType": "uint256",
          "name": "resumeId",
          "type": "uint256"
        },
        {
          "internalType": "string",
          "name": "newCID",
          "type": "string"
        }
      ],
      "name": "updateProfile",
      "outputs": [],
      "stateMutability": "nonpayable",
      "type": "function"
    },
    {
      "inputs": [
        {
          "internalType": "uint256",
          "name": "resumeId",
          "type": "uint256"
        },
        {
          "internalType": "uint256",
          "name": "index",
          "type": "uint256"
        }
      ],
      "name": "verifyMilestone",
      "outputs": [],
      "stateMutability": "nonpayable",
      "type": "function"
    }
  ],
  "transactionHash": "0xd4b631f4f14c4b5f0f23adbb08ea48817030b6e5791bcf822e16229783d8de1f",
  "args": [],
  "numDeployments": 1,
  "solcInputHash": "cb396650b512a4423c614e9c5e3089c0",
  "bytecode": "0x608060405234801561001057600080fd5b5061018c6100b060408051608081018252600080825260208201819052918101829052606081019190915250604080516080810182527350157cffd6bbfa2dece204a89ec419c23ef5755d815273cd3ab3bd6bcc0c0bf3e27912a92043e817b1cf69602082015273a02cda4ca3a71d7c46997716f4283aa851c2881291810191909152731364cbbf2cdf5032c47d8226a6f6fbd2afcdacac606082015290565b80517f9e7b61f58c47dc699ac88507c4f5bb9f121c03808c5676a8078fe583e464970080546001600160a01b03199081166001600160a01b039384161790915560208301517f9e7b61f58c47dc699ac88507c4f5bb9f121c03808c5676a8078fe583e46497018054831691841691909117905560408301517f9e7b61f58c47dc699ac88507c4f5bb9f121c03808c5676a8078fe583e46497028054831691841691909117905560608301517f9e7b61f58c47dc699ac88507c4f5bb9f121c03808c5676a8078fe583e46497038054909216921691909117905550565b611a448061019b6000396000f3fe608060405234801561001057600080fd5b50600436106100ea5760003560e01c80635a9461401161008c5780638e1ca3ae116100665780638e1ca3ae146101d2578063ba9b4cbd146101e5578063da1f12ab14610205578063f08f4f641461020d57600080fd5b80635a9461401461018c57806389370d8b1461019f57806389c7e0a0146101bf57600080fd5b806330b759dd116100c857806330b759dd1461014a57806332e6f0bb14610153578063334c3f0e146101665780634b886a7b1461017957600080fd5b8063104fe8cf146100ef5780631473a424146101045780632dd03f9314610137575b600080fd5b6101026100fd36600461125d565b61022d565b005b6101246101123660046112b0565b60009081526004602052604090205490565b6040519081526020015b60405180910390f35b6101026101453660046112c9565b61034e565b61012460025481565b61010261016136600461125d565b6103f9565b6101246101743660046112eb565b6104f7565b61010261018736600461125d565b610598565b61010261019a366004611349565b610631565b6101246101ad3660046112b0565b60009081526003602052604090205490565b6101026101cd366004611375565b6106a5565b6101026101e03660046113c1565b61072e565b6101f86101f33660046114a9565b610999565b60405161012e91906114c4565b612711610124565b61022061021b3660046112b0565b610a05565b60405161012e919061154e565b60008481526020819052604090206001015484906001600160a01b031633146102715760405162461bcd60e51b81526004016102689061168c565b60405180910390fd5b60006102b38585858080601f016020809104026020016040519081016040528093929190818152602001838380828437600092019190915250610df392505050565b6000878152600360205260409020549091506102cf9082610e08565b60008781526003602052604090208190556102e990610e3a565b50600086815260036020908152604080832054918390529091206001015461031a91906001600160a01b0316610e4a565b5060405186907ffb1e5dd8ca96eda2b9c1e789b47289620410aae8a06fdde0f43e2079421d464790600090a2505050505050565b6000828152602081905260408120600301805483908110610371576103716116af565b60009182526020909120600660079092020190810180543361010081026001600160a81b03199092169190911760011790915560405191925084917f15a0cc14ef880a2f5dbea957d552fd03dda61bc74eec3d93028bce83b72f952b916103ec918691909182526001600160a01b0316602082015260400190565b60405180910390a2505050565b60008481526020819052604090206001015484906001600160a01b031633146104345760405162461bcd60e51b81526004016102689061168c565b60006104768585858080601f016020809104026020016040519081016040528093929190818152602001838380828437600092019190915250610e5d92505050565b6000878152600460205260409020819055905061049281610e3a565b5060008681526004602090815260408083205491839052909120600101546104c391906001600160a01b0316610e4a565b5060405186907f10313cf0b704e34b660464a2b954e9492cac093df7c9774643aa84aabb94795390600090a2505050505050565b6002805460009182610508836116c5565b90915550506002805460008181526020819052604090208181556001810180546001600160a01b031916331790559091810161054585878361178d565b503360008181526001602081815260408084208054938401815584529083209091018590555184917f9f150021d8fd04eb219a39e3019273bddf99a9a2e434dd2aa8132e32ea9244b091a3509392505050565b60008481526020819052604090206001015484906001600160a01b031633146105d35760405162461bcd60e51b81526004016102689061168c565b60006106158585858080601f016020809104026020016040519081016040528093929190818152602001838380828437600092019190915250610df392505050565b6000878152600360205260409020549091506102cf9082610e6b565b60008281526020819052604090206001015482906001600160a01b0316331461066c5760405162461bcd60e51b81526004016102689061168c565b6000838152600360205260409020546106859083610e4a565b5060008381526004602052604090205461069f9083610e4a565b50505050565b60008381526020819052604090206001015483906001600160a01b031633146106e05760405162461bcd60e51b81526004016102689061168c565b60008481526020819052604090206002016106fc83858361178d565b5060405184907f1009d11766ca0abafafcdd4e48b742e3865ee5b8239e3c3d26005003ccee88b390600090a250505050565b60008b8152602081905260409020600101548b906001600160a01b031633146107695760405162461bcd60e51b81526004016102689061168c565b60008060008e81526020019081526020016000209050806003016040518061010001604052808e8e8080601f016020809104026020016040519081016040528093929190818152602001838380828437600092019190915250505090825250604080516020601f8f018190048102820181019092528d815291810191908e908e9081908401838280828437600092019190915250505090825250604080516020601f8d018190048102820181019092528b815291810191908c908c908190840183828082843760009201919091525050509082525060208082018a905260408083018a90528051601f890183900483028101830190915287815260609092019190889088908190840183828082843760009201829052509385525050506020808301829052604090920181905283546001810185559381522081519192600702019081906108b7908261184e565b50602082015160018201906108cc908261184e565b50604082015160028201906108e1908261184e565b50606082015160038201556080820151600482015560a0820151600582019061090a908261184e565b5060c08201516006909101805460e0909301516001600160a01b031661010002610100600160a81b0319921515929092166001600160a81b0319909316929092171790556040518d907ff5bf96894839ca53345c598d07745eea8e093868140871514f2998a3c43ad7b490610982908f908f9061190e565b60405180910390a250505050505050505050505050565b6001600160a01b0381166000908152600160209081526040918290208054835181840281018401909452808452606093928301828280156109f957602002820191906000526020600020905b8154815260200190600101908083116109e5575b50505050509050919050565b610a3960405180608001604052806000815260200160006001600160a01b0316815260200160608152602001606081525090565b6000828152602081815260409182902082516080810184528154815260018201546001600160a01b0316928101929092526002810180549293919291840191610a8190611702565b80601f0160208091040260200160405190810160405280929190818152602001828054610aad90611702565b8015610afa5780601f10610acf57610100808354040283529160200191610afa565b820191906000526020600020905b815481529060010190602001808311610add57829003601f168201915b5050505050815260200160038201805480602002602001604051908101604052809291908181526020016000905b82821015610de5578382906000526020600020906007020160405180610100016040529081600082018054610b5c90611702565b80601f0160208091040260200160405190810160405280929190818152602001828054610b8890611702565b8015610bd55780601f10610baa57610100808354040283529160200191610bd5565b820191906000526020600020905b815481529060010190602001808311610bb857829003601f168201915b50505050508152602001600182018054610bee90611702565b80601f0160208091040260200160405190810160405280929190818152602001828054610c1a90611702565b8015610c675780601f10610c3c57610100808354040283529160200191610c67565b820191906000526020600020905b815481529060010190602001808311610c4a57829003601f168201915b50505050508152602001600282018054610c8090611702565b80601f0160208091040260200160405190810160405280929190818152602001828054610cac90611702565b8015610cf95780601f10610cce57610100808354040283529160200191610cf9565b820191906000526020600020905b815481529060010190602001808311610cdc57829003601f168201915b505050505081526020016003820154815260200160048201548152602001600582018054610d2690611702565b80601f0160208091040260200160405190810160405280929190818152602001828054610d5290611702565b8015610d9f5780601f10610d7457610100808354040283529160200191610d9f565b820191906000526020600020905b815481529060010190602001808311610d8257829003601f168201915b50505091835250506006919091015460ff811615156020808401919091526101009091046001600160a01b03166040909201919091529082526001929092019101610b28565b505050915250909392505050565b6000610e0183836004610e9d565b9392505050565b600082610e1c57610e196000610fa2565b92505b81610e2e57610e2b6000610fa2565b91505b610e0183836000610fbb565b6000610e46823061107f565b5090565b6000610e56838361107f565b5090919050565b6000610e0183836005610e9d565b600082610e7f57610e7c6000610fa2565b92505b81610e9157610e8e6000610fa2565b91505b610e01838360006110fc565b6000805160206119cf8339815191525460405163196d0b9b60e01b81526000916000805160206119ef833981519152916001600160a01b039091169063196d0b9b90610ef390889033908990899060040161195f565b6020604051808303816000875af1158015610f12573d6000803e3d6000fd5b505050506040513d601f19601f82011682018060405250810190610f3691906119a1565b8154604051630f8e573b60e21b8152600481018390523360248201529193506001600160a01b031690633e395cec90604401600060405180830381600087803b158015610f8257600080fd5b505af1158015610f96573d6000803e3d6000fd5b50505050509392505050565b6000610fb58263ffffffff166004611177565b92915050565b6000808215610fcf5750600160f81b610fd3565b5060005b6000805160206119cf8339815191525460405163022f65e760e31b815260048101879052602481018690526001600160f81b0319831660448201526000805160206119ef833981519152916001600160a01b03169063117b2f38906064015b6020604051808303816000875af1158015611051573d6000803e3d6000fd5b505050506040513d601f19601f8201168201806040525081019061107591906119a1565b9695505050505050565b60006000805160206119ef8339815191528054604051635ca4b5b160e11b8152600481018690526001600160a01b03858116602483015292935091169063b9496b6290604401600060405180830381600087803b1580156110df57600080fd5b505af11580156110f3573d6000803e3d6000fd5b50505050505050565b60008082156111105750600160f81b611114565b5060005b6000805160206119cf833981519152546040516303056db360e31b815260048101879052602481018690526001600160f81b0319831660448201526000805160206119ef833981519152916001600160a01b03169063182b6d9890606401611032565b6000805160206119cf83398151915254604051639cd07acb60e01b81526000916000805160206119ef833981519152916001600160a01b0390911690639cd07acb906111c990879087906004016119ba565b6020604051808303816000875af11580156111e8573d6000803e3d6000fd5b505050506040513d601f19601f8201168201806040525081019061120c91906119a1565b949350505050565b60008083601f84011261122657600080fd5b50813567ffffffffffffffff81111561123e57600080fd5b60208301915083602082850101111561125657600080fd5b9250929050565b6000806000806060858703121561127357600080fd5b8435935060208501359250604085013567ffffffffffffffff81111561129857600080fd5b6112a487828801611214565b95989497509550505050565b6000602082840312156112c257600080fd5b5035919050565b600080604083850312156112dc57600080fd5b50508035926020909101359150565b600080602083850312156112fe57600080fd5b823567ffffffffffffffff81111561131557600080fd5b61132185828601611214565b90969095509350505050565b80356001600160a01b038116811461134457600080fd5b919050565b6000806040838503121561135c57600080fd5b8235915061136c6020840161132d565b90509250929050565b60008060006040848603121561138a57600080fd5b83359250602084013567ffffffffffffffff8111156113a857600080fd5b6113b486828701611214565b9497909650939450505050565b600080600080600080600080600080600060e08c8e0312156113e257600080fd5b8b359a5067ffffffffffffffff8060208e0135111561140057600080fd5b6114108e60208f01358f01611214565b909b50995060408d013581101561142657600080fd5b6114368e60408f01358f01611214565b909950975060608d013581101561144c57600080fd5b61145c8e60608f01358f01611214565b909750955060808d0135945060a08d0135935060c08d013581101561148057600080fd5b506114918d60c08e01358e01611214565b81935080925050509295989b509295989b9093969950565b6000602082840312156114bb57600080fd5b610e018261132d565b6020808252825182820181905260009190848201906040850190845b818110156114fc578351835292840192918401916001016114e0565b50909695505050505050565b6000815180845260005b8181101561152e57602081850181015186830182015201611512565b506000602082860101526020601f19601f83011685010191505092915050565b6000602080835260a084518285015281850151604060018060a01b038216604087015260408701519150608060606080606089015261159060a0890185611508565b60608a0151601f198a8303810160808c015281518084529296509088019188870190600581901b88018a0160005b8281101561167a57848a8303018452855161010081518185526115e382860182611508565b9150508d8201518482038f8601526115fb8282611508565b9150508a8201518482038c8601526116138282611508565b9150508882015189850152898201518a8501528c8201518482038e86015261163b8282611508565b91505060c0808301516116518287018215159052565b505060e0918201516001600160a01b03169390910192909252948b0194928b01926001016115be565b509d9c50505050505050505050505050565b6020808252600990820152682737ba1037bbb732b960b91b604082015260600190565b634e487b7160e01b600052603260045260246000fd5b6000600182016116e557634e487b7160e01b600052601160045260246000fd5b5060010190565b634e487b7160e01b600052604160045260246000fd5b600181811c9082168061171657607f821691505b60208210810361173657634e487b7160e01b600052602260045260246000fd5b50919050565b601f821115611788576000816000526020600020601f850160051c810160208610156117655750805b601f850160051c820191505b8181101561178457828155600101611771565b5050505b505050565b67ffffffffffffffff8311156117a5576117a56116ec565b6117b9836117b38354611702565b8361173c565b6000601f8411600181146117ed57600085156117d55750838201355b600019600387901b1c1916600186901b178355611847565b600083815260209020601f19861690835b8281101561181e57868501358255602094850194600190920191016117fe565b508682101561183b5760001960f88860031b161c19848701351681555b505060018560011b0183555b5050505050565b815167ffffffffffffffff811115611868576118686116ec565b61187c816118768454611702565b8461173c565b602080601f8311600181146118b157600084156118995750858301515b600019600386901b1c1916600185901b178555611784565b600085815260208120601f198616915b828110156118e0578886015182559484019460019091019084016118c1565b50858210156118fe5787850151600019600388901b60f8161c191681555b5050505050600190811b01905550565b60208152816020820152818360408301376000818301604090810191909152601f909201601f19160101919050565b6054811061195b57634e487b7160e01b600052602160045260246000fd5b9052565b8481526001600160a01b038416602082015260806040820181905260009061198990830185611508565b9050611998606083018461193d565b95945050505050565b6000602082840312156119b357600080fd5b5051919050565b82815260408101610e01602083018461193d56fe9e7b61f58c47dc699ac88507c4f5bb9f121c03808c5676a8078fe583e46497019e7b61f58c47dc699ac88507c4f5bb9f121c03808c5676a8078fe583e4649700a2646970667358221220e342010561c620c3ff680e838d614e85e1ed99837929db27115c2e414d732aa264736f6c63430008180033",
  "devdoc": {
    "kind": "dev",
    "methods": {},
    "title": "NebulaResumeFHE",
    "version": 1
  },
  "userdoc": {
    "kind": "user",
    "methods": {},
    "notice": " ChainResumeFHE   - Profile  Milestone   -  FHE ",
    "version": 1
  },
  "storageLayout": {
    "storage": [
      {
        "astId": 39071,
        "contract": "contracts/NebulaResumeFHE.sol:NebulaResumeFHE",
        "label": "_resumes",
        "offset": 0,
        "slot": "0",
        "type": "t_mapping(t_uint256,t_struct(Resume)39066_storage)"
      },
      {
        "astId": 39076,
        "contract": "contracts/NebulaResumeFHE.sol:NebulaResumeFHE",
        "label": "_userResumes",
        "offset": 0,
        "slot": "1",
        "type": "t_mapping(t_address,t_array(t_uint256)dyn_storage)"
      },
      {
        "astId": 39078,
        "contract": "contracts/NebulaResumeFHE.sol:NebulaResumeFHE",
        "label": "resumeCount",
        "offset": 0,
        "slot": "2",
        "type": "t_uint256"
      },
      {
        "astId": 39083,
        "contract": "contracts/NebulaResumeFHE.sol:NebulaResumeFHE",
        "label": "_endorsementScore",
        "offset": 0,
        "slot": "3",
        "type": "t_mapping(t_uint256,t_userDefinedValueType(euint32)39572)"
      },
      {
        "astId": 39088,
        "contract": "contracts/NebulaResumeFHE.sol:NebulaResumeFHE",
        "label": "_privateNote",
        "offset": 0,
        "slot": "4",
        "type": "t_mapping(t_uint256,t_userDefinedValueType(euint64)39580)"
      }
    ],
    "types": {
      "t_address": {
        "encoding": "inplace",
        "label": "address",
        "numberOfBytes": "20"
      },
      "t_array(t_struct(Experience)39055_storage)dyn_storage": {
        "base": "t_struct(Experience)39055_storage",
        "encoding": "dynamic_array",
        "label": "struct NebulaResumeFHE.Experience[]",
        "numberOfBytes": "32"
      },
      "t_array(t_uint256)dyn_storage": {
        "base": "t_uint256",
        "encoding": "dynamic_array",
        "label": "uint256[]",
        "numberOfBytes": "32"
      },
      "t_bool": {
        "encoding": "inplace",
        "label": "bool",
        "numberOfBytes": "1"
      },
      "t_mapping(t_address,t_array(t_uint256)dyn_storage)": {
        "encoding": "mapping",
        "key": "t_address",
        "label": "mapping(address => uint256[])",
        "numberOfBytes": "32",
        "value": "t_array(t_uint256)dyn_storage"
      },
      "t_mapping(t_uint256,t_struct(Resume)39066_storage)": {
        "encoding": "mapping",
        "key": "t_uint256",
        "label": "mapping(uint256 => struct NebulaResumeFHE.Resume)",
        "numberOfBytes": "32",
        "value": "t_struct(Resume)39066_storage"
      },
      "t_mapping(t_uint256,t_userDefinedValueType(euint32)39572)": {
        "encoding": "mapping",
        "key": "t_uint256",
        "label": "mapping(uint256 => euint32)",
        "numberOfBytes": "32",
        "value": "t_userDefinedValueType(euint32)39572"
      },
      "t_mapping(t_uint256,t_userDefinedValueType(euint64)39580)": {
        "encoding": "mapping",
        "key": "t_uint256",
        "label": "mapping(uint256 => euint64)",
        "numberOfBytes": "32",
        "value": "t_userDefinedValueType(euint64)39580"
      },
      "t_string_storage": {
        "encoding": "bytes",
        "label": "string",
        "numberOfBytes": "32"
      },
      "t_struct(Experience)39055_storage": {
        "encoding": "inplace",
        "label": "struct NebulaResumeFHE.Experience",
        "members": [
          {
            "astId": 39040,
            "contract": "contracts/NebulaResumeFHE.sol:NebulaResumeFHE",
            "label": "company",
            "offset": 0,
            "slot": "0",
            "type": "t_string_storage"
          },
          {
            "astId": 39042,
            "contract": "contracts/NebulaResumeFHE.sol:NebulaResumeFHE",
            "label": "position",
            "offset": 0,
            "slot": "1",
            "type": "t_string_storage"
          },
          {
            "astId": 39044,
            "contract": "contracts/NebulaResumeFHE.sol:NebulaResumeFHE",
            "label": "description",
            "offset": 0,
            "slot": "2",
            "type": "t_string_storage"
          },
          {
            "astId": 39046,
            "contract": "contracts/NebulaResumeFHE.sol:NebulaResumeFHE",
            "label": "startDate",
            "offset": 0,
            "slot": "3",
            "type": "t_uint256"
          },
          {
            "astId": 39048,
            "contract": "contracts/NebulaResumeFHE.sol:NebulaResumeFHE",
            "label": "endDate",
            "offset": 0,
            "slot": "4",
            "type": "t_uint256"
          },
          {
            "astId": 39050,
            "contract": "contracts/NebulaResumeFHE.sol:NebulaResumeFHE",
            "label": "proofCID",
            "offset": 0,
            "slot": "5",
            "type": "t_string_storage"
          },
          {
            "astId": 39052,
            "contract": "contracts/NebulaResumeFHE.sol:NebulaResumeFHE",
            "label": "verified",
            "offset": 0,
            "slot": "6",
            "type": "t_bool"
          },
          {
            "astId": 39054,
            "contract": "contracts/NebulaResumeFHE.sol:NebulaResumeFHE",
            "label": "verifier",
            "offset": 1,
            "slot": "6",
            "type": "t_address"
          }
        ],
        "numberOfBytes": "224"
      },
      "t_struct(Resume)39066_storage": {
        "encoding": "inplace",
        "label": "struct NebulaResumeFHE.Resume",
        "members": [
          {
            "astId": 39057,
            "contract": "contracts/NebulaResumeFHE.sol:NebulaResumeFHE",
            "label": "id",
            "offset": 0,
            "slot": "0",
            "type": "t_uint256"
          },
          {
            "astId": 39059,
            "contract": "contracts/NebulaResumeFHE.sol:NebulaResumeFHE",
            "label": "owner",
            "offset": 0,
            "slot": "1",
            "type": "t_address"
          },
          {
            "astId": 39061,
            "contract": "contracts/NebulaResumeFHE.sol:NebulaResumeFHE",
            "label": "metadataCID",
            "offset": 0,
            "slot": "2",
            "type": "t_string_storage"
          },
          {
            "astId": 39065,
            "contract": "contracts/NebulaResumeFHE.sol:NebulaResumeFHE",
            "label": "experiences",
            "offset": 0,
            "slot": "3",
            "type": "t_array(t_struct(Experience)39055_storage)dyn_storage"
          }
        ],
        "numberOfBytes": "128"
      },
      "t_uint256": {
        "encoding": "inplace",
        "label": "uint256",
        "numberOfBytes": "32"
      },
      "t_userDefinedValueType(euint32)39572": {
        "encoding": "inplace",
        "label": "euint32",
        "numberOfBytes": "32"
      },
      "t_userDefinedValueType(euint64)39580": {
        "encoding": "inplace",
        "label": "euint64",
        "numberOfBytes": "32"
      }
    }
  }
}